{
  "contractName": "Adoption",
  "abi": [
    {
      "inputs": [
        {
          "internalType": "uint256",
          "name": "",
          "type": "uint256"
        }
      ],
      "name": "adopters",
      "outputs": [
        {
          "internalType": "address",
          "name": "",
          "type": "address"
        }
      ],
      "stateMutability": "view",
      "type": "function",
      "constant": true
    },
    {
      "inputs": [],
      "name": "my_string",
      "outputs": [
        {
          "internalType": "string",
          "name": "",
          "type": "string"
        }
      ],
      "stateMutability": "view",
      "type": "function",
      "constant": true
    },
    {
      "inputs": [
        {
          "internalType": "uint256",
          "name": "petId",
          "type": "uint256"
        }
      ],
      "name": "adopt",
      "outputs": [
        {
          "internalType": "uint256",
          "name": "",
          "type": "uint256"
        }
      ],
      "stateMutability": "nonpayable",
      "type": "function"
    },
    {
      "inputs": [],
      "name": "getAdopters",
      "outputs": [
        {
          "internalType": "address[16]",
          "name": "",
          "type": "address[16]"
        }
      ],
      "stateMutability": "view",
      "type": "function",
      "constant": true
    },
    {
      "inputs": [],
      "name": "getTest",
      "outputs": [
        {
          "internalType": "string",
          "name": "",
          "type": "string"
        }
      ],
      "stateMutability": "view",
      "type": "function",
      "constant": true
    }
  ],
  "bytecode": "0x60806040526040518060400160405280600581526020017f566f696b6f0000000000000000000000000000000000000000000000000000008152506010908051906020019061004f929190610062565b5034801561005c57600080fd5b50610107565b828054600181600116156101000203166002900490600052602060002090601f016020900481019282601f106100a357805160ff19168380011785556100d1565b828001600101855582156100d1579182015b828111156100d05782518255916020019190600101906100b5565b5b5090506100de91906100e2565b5090565b61010491905b808211156101005760008160009055506001016100e8565b5090565b90565b610516806101166000396000f3fe608060405234801561001057600080fd5b50600436106100575760003560e01c80633de4eb171461005c57806343ae80d3146100a25780634f61d2d4146101105780638588b2c514610193578063a8cd0a80146101d5575b600080fd5b610064610258565b6040518082601060200280838360005b8381101561008f578082015181840152602081019050610074565b5050505090500191505060405180910390f35b6100ce600480360360208110156100b857600080fd5b81019080803590602001909291905050506102d9565b604051808273ffffffffffffffffffffffffffffffffffffffff1673ffffffffffffffffffffffffffffffffffffffff16815260200191505060405180910390f35b61011861030c565b6040518080602001828103825283818151815260200191508051906020019080838360005b8381101561015857808201518184015260208101905061013d565b50505050905090810190601f1680156101855780820380516001836020036101000a031916815260200191505b509250505060405180910390f35b6101bf600480360360208110156101a957600080fd5b81019080803590602001909291905050506103aa565b6040518082815260200191505060405180910390f35b6101dd61041b565b6040518080602001828103825283818151815260200191508051906020019080838360005b8381101561021d578082015181840152602081019050610202565b50505050905090810190601f16801561024a5780820380516001836020036101000a031916815260200191505b509250505060405180910390f35b6102606104bd565b60006010806020026040519081016040528092919082601080156102cf576020028201915b8160009054906101000a900473ffffffffffffffffffffffffffffffffffffffff1673ffffffffffffffffffffffffffffffffffffffff1681526020019060010190808311610285575b5050505050905090565b600081601081106102e657fe5b016000915054906101000a900473ffffffffffffffffffffffffffffffffffffffff1681565b60108054600181600116156101000203166002900480601f0160208091040260200160405190810160405280929190818152602001828054600181600116156101000203166002900480156103a25780601f10610377576101008083540402835291602001916103a2565b820191906000526020600020905b81548152906001019060200180831161038557829003601f168201915b505050505081565b60008082101580156103bd5750600f8211155b6103c657600080fd5b33600083601081106103d457fe5b0160006101000a81548173ffffffffffffffffffffffffffffffffffffffff021916908373ffffffffffffffffffffffffffffffffffffffff160217905550819050919050565b606060108054600181600116156101000203166002900480601f0160208091040260200160405190810160405280929190818152602001828054600181600116156101000203166002900480156104b35780601f10610488576101008083540402835291602001916104b3565b820191906000526020600020905b81548152906001019060200180831161049657829003601f168201915b5050505050905090565b60405180610200016040528060109060208202803883398082019150509050509056fea26469706673582212205a1288fc0989cebf67023ddc304d7e184acde44b01ba74d8f2ee9decb32410df64736f6c63430006010033",
  "source": "// SPDX-License-Identifier: MIT\r\npragma solidity >=0.5.0;\r\n\r\ncontract Adoption {\r\n\r\n    address[16] public adopters;\r\n    string public my_string = \"Voiko\";\r\n    // Adopting a pet\r\n    function adopt(uint petId) public returns (uint) {\r\n        require(petId >= 0 && petId <= 15);\r\n\r\n        adopters[petId] = msg.sender;\r\n\r\n        return petId;\r\n    }\r\n\r\n    // Retrieving the adopters\r\n    function getAdopters() public view returns (address[16] memory) {\r\n         return adopters;\r\n    }\r\n\r\n    function getTest() public view returns (string memory) {\r\n\r\n         return my_string;\r\n    }\r\n    \r\n\r\n\r\n\r\n}",
  "sourcePath": "c:\\Users\\me\\Desktop\\לימודים\\שנה ג\\פרוייקט גמר\\TrustMe30.5\\EscrowContract - Copy\\contracts\\Adoption.sol",
  "compiler": {
    "name": "solc",
    "version": "0.6.1+commit.e6f7d5a4.Emscripten.clang"
  },
  "schemaVersion": "3.4.7",
  "updatedAt": "2022-06-05T12:39:17.652Z",
  "networkType": "ethereum",
  "devdoc": {
    "methods": {}
  },
  "userdoc": {
    "methods": {}
  }
}