{
  "contractName": "Escrow",
  "abi": [
    {
      "inputs": [
        {
          "internalType": "contract EscrowManager",
          "name": "_parentContract",
          "type": "address"
        },
        {
          "internalType": "address payable",
          "name": "_seller",
          "type": "address"
        },
        {
          "internalType": "address payable",
          "name": "_buyer",
          "type": "address"
        },
        {
          "internalType": "uint256",
          "name": "_buyerAmount",
          "type": "uint256"
        },
        {
          "internalType": "uint256",
          "name": "_sellerAmount",
          "type": "uint256"
        },
        {
          "internalType": "uint256",
          "name": "_index",
          "type": "uint256"
        },
        {
          "internalType": "uint256",
          "name": "_expiredTime",
          "type": "uint256"
        }
      ],
      "stateMutability": "nonpayable",
      "type": "constructor"
    },
    {
      "anonymous": false,
      "inputs": [
        {
          "indexed": false,
          "internalType": "uint256",
          "name": "amount",
          "type": "uint256"
        }
      ],
      "name": "TotalAmount",
      "type": "event"
    },
    {
      "stateMutability": "nonpayable",
      "type": "fallback"
    },
    {
      "inputs": [],
      "name": "balanceCheck",
      "outputs": [
        {
          "internalType": "uint256",
          "name": "",
          "type": "uint256"
        }
      ],
      "stateMutability": "view",
      "type": "function"
    },
    {
      "inputs": [],
      "name": "buyer",
      "outputs": [
        {
          "internalType": "address payable",
          "name": "",
          "type": "address"
        }
      ],
      "stateMutability": "view",
      "type": "function"
    },
    {
      "inputs": [],
      "name": "buyerAmount",
      "outputs": [
        {
          "internalType": "uint256",
          "name": "",
          "type": "uint256"
        }
      ],
      "stateMutability": "view",
      "type": "function"
    },
    {
      "inputs": [],
      "name": "deployTime",
      "outputs": [
        {
          "internalType": "uint256",
          "name": "",
          "type": "uint256"
        }
      ],
      "stateMutability": "view",
      "type": "function"
    },
    {
      "inputs": [],
      "name": "expiredTime",
      "outputs": [
        {
          "internalType": "uint256",
          "name": "",
          "type": "uint256"
        }
      ],
      "stateMutability": "view",
      "type": "function"
    },
    {
      "inputs": [],
      "name": "index",
      "outputs": [
        {
          "internalType": "uint256",
          "name": "",
          "type": "uint256"
        }
      ],
      "stateMutability": "view",
      "type": "function"
    },
    {
      "inputs": [],
      "name": "seller",
      "outputs": [
        {
          "internalType": "address payable",
          "name": "",
          "type": "address"
        }
      ],
      "stateMutability": "view",
      "type": "function"
    },
    {
      "inputs": [],
      "name": "sellerAmount",
      "outputs": [
        {
          "internalType": "uint256",
          "name": "",
          "type": "uint256"
        }
      ],
      "stateMutability": "view",
      "type": "function"
    },
    {
      "inputs": [],
      "name": "totalAmount",
      "outputs": [
        {
          "internalType": "uint256",
          "name": "",
          "type": "uint256"
        }
      ],
      "stateMutability": "view",
      "type": "function"
    },
    {
      "stateMutability": "payable",
      "type": "receive"
    },
    {
      "inputs": [],
      "name": "getBalance",
      "outputs": [
        {
          "internalType": "uint256",
          "name": "",
          "type": "uint256"
        }
      ],
      "stateMutability": "view",
      "type": "function"
    },
    {
      "inputs": [
        {
          "internalType": "uint256",
          "name": "pivot",
          "type": "uint256"
        }
      ],
      "name": "moneyRetur",
      "outputs": [],
      "stateMutability": "nonpayable",
      "type": "function"
    }
  ],
  "bytecode": "0x608060405260006006553480156200001657600080fd5b5060405162000e2038038062000e2083398181016040526200003c919081019062000173565b86600960006101000a81548173ffffffffffffffffffffffffffffffffffffffff021916908373ffffffffffffffffffffffffffffffffffffffff16021790555085600160006101000a81548173ffffffffffffffffffffffffffffffffffffffff021916908373ffffffffffffffffffffffffffffffffffffffff160217905550846000806101000a81548173ffffffffffffffffffffffffffffffffffffffff021916908373ffffffffffffffffffffffffffffffffffffffff160217905550836002819055508260038190555080600681905550426005819055508160078190555050505050505050620002d4565b6000815190506200013f8162000286565b92915050565b6000815190506200015681620002a0565b92915050565b6000815190506200016d81620002ba565b92915050565b600080600080600080600060e0888a0312156200018f57600080fd5b60006200019f8a828b0162000145565b9750506020620001b28a828b016200012e565b9650506040620001c58a828b016200012e565b9550506060620001d88a828b016200015c565b9450506080620001eb8a828b016200015c565b93505060a0620001fe8a828b016200015c565b92505060c0620002118a828b016200015c565b91505092959891949750929550565b60006200022d826200025c565b9050919050565b600062000241826200025c565b9050919050565b6000620002558262000220565b9050919050565b600073ffffffffffffffffffffffffffffffffffffffff82169050919050565b6000819050919050565b620002918162000234565b81146200029d57600080fd5b50565b620002ab8162000248565b8114620002b757600080fd5b50565b620002c5816200027c565b8114620002d157600080fd5b50565b610b3c80620002e46000396000f3fe6080604052600436106100a05760003560e01c80634ba6f28e116100645780634ba6f28e1461036f5780635f0bac561461039a5780637150d8ae146103c55780637a40624b146103f05780638e32e4211461041b578063f372a75a1461044657610289565b806308551a531461029857806312065fe0146102c35780631a39d8ef146102ee5780632986c0e51461031957806347b2c7361461034457610289565b3661028957600160009054906101000a900473ffffffffffffffffffffffffffffffffffffffff1673ffffffffffffffffffffffffffffffffffffffff163373ffffffffffffffffffffffffffffffffffffffff16148015610103575060035434145b8061016757506000809054906101000a900473ffffffffffffffffffffffffffffffffffffffff1673ffffffffffffffffffffffffffffffffffffffff163373ffffffffffffffffffffffffffffffffffffffff16148015610166575060025434145b5b6101a6576040517f08c379a000000000000000000000000000000000000000000000000000000000815260040161019d906109e8565b60405180910390fd5b34600460008282540192505081905550476008819055507fcc8a945cefd3d387766a176b61e5af26be3c241ba32f62dd5a8c1ebfb30f3f506004546040516101ee9190610a28565b60405180910390a1600960009054906101000a900473ffffffffffffffffffffffffffffffffffffffff1673ffffffffffffffffffffffffffffffffffffffff1663b0c149e3600754336040518363ffffffff1660e01b8152600401610255929190610a43565b600060405180830381600087803b15801561026f57600080fd5b505af1158015610283573d6000803e3d6000fd5b50505050005b34801561029557600080fd5b50005b3480156102a457600080fd5b506102ad61046f565b6040516102ba919061098d565b60405180910390f35b3480156102cf57600080fd5b506102d8610495565b6040516102e59190610a28565b60405180910390f35b3480156102fa57600080fd5b5061030361049d565b6040516103109190610a28565b60405180910390f35b34801561032557600080fd5b5061032e6104a3565b60405161033b9190610a28565b60405180910390f35b34801561035057600080fd5b506103596104a9565b6040516103669190610a28565b60405180910390f35b34801561037b57600080fd5b506103846104af565b6040516103919190610a28565b60405180910390f35b3480156103a657600080fd5b506103af6104b5565b6040516103bc9190610a28565b60405180910390f35b3480156103d157600080fd5b506103da6104bb565b6040516103e7919061098d565b60405180910390f35b3480156103fc57600080fd5b506104056104e0565b6040516104129190610a28565b60405180910390f35b34801561042757600080fd5b506104306104e6565b60405161043d9190610a28565b60405180910390f35b34801561045257600080fd5b5061046d6004803603610468919081019061079f565b6104ec565b005b600160009054906101000a900473ffffffffffffffffffffffffffffffffffffffff1681565b600047905090565b60045481565b60075481565b60035481565b60085481565b60025481565b6000809054906101000a900473ffffffffffffffffffffffffffffffffffffffff1681565b60055481565b60065481565b60018114156105aa5760035447101561053a576040517f08c379a0000000000000000000000000000000000000000000000000000000008152600401610531906109c8565b60405180910390fd5b600160009054906101000a900473ffffffffffffffffffffffffffffffffffffffff1673ffffffffffffffffffffffffffffffffffffffff166108fc6003549081150290604051600060405180830381858888f193505050501580156105a4573d6000803e3d6000fd5b50610787565b6002811415610667576002544710156105f8576040517f08c379a00000000000000000000000000000000000000000000000000000000081526004016105ef906109a8565b60405180910390fd5b6000809054906101000a900473ffffffffffffffffffffffffffffffffffffffff1673ffffffffffffffffffffffffffffffffffffffff166108fc6002549081150290604051600060405180830381858888f19350505050158015610661573d6000803e3d6000fd5b50610786565b600354600254014710156106b0576040517f08c379a00000000000000000000000000000000000000000000000000000000081526004016106a790610a08565b60405180910390fd5b600160009054906101000a900473ffffffffffffffffffffffffffffffffffffffff1673ffffffffffffffffffffffffffffffffffffffff166108fc6003549081150290604051600060405180830381858888f1935050505015801561071a573d6000803e3d6000fd5b506000809054906101000a900473ffffffffffffffffffffffffffffffffffffffff1673ffffffffffffffffffffffffffffffffffffffff166108fc6002549081150290604051600060405180830381858888f19350505050158015610784573d6000803e3d6000fd5b505b5b50565b60008135905061079981610aef565b92915050565b6000602082840312156107b157600080fd5b60006107bf8482850161078a565b91505092915050565b6107d181610ab9565b82525050565b6107e081610a7d565b82525050565b60006107f3603a83610a6c565b91507f596f752068617665206e6f74206d6f6e657920656e6f756768206d6f6e65792060008301527f696e2074686520636f6e74726163742120287069766f742032290000000000006020830152604082019050919050565b6000610859603a83610a6c565b91507f596f752068617665206e6f74206d6f6e657920656e6f756768206d6f6e65792060008301527f696e2074686520636f6e74726163742120287069766f742031290000000000006020830152604082019050919050565b60006108bf603783610a6c565b91507f596f7520617265206e6f7420616c6c6f776564204f5220796f7520747279207460008301527f6f2073656e6420756e7375697461626c652066756e64730000000000000000006020830152604082019050919050565b6000610925603a83610a6c565b91507f596f752068617665206e6f74206d6f6e657920656e6f756768206d6f6e65792060008301527f696e2074686520636f6e74726163742120287069766f742033290000000000006020830152604082019050919050565b61098781610aaf565b82525050565b60006020820190506109a260008301846107d7565b92915050565b600060208201905081810360008301526109c1816107e6565b9050919050565b600060208201905081810360008301526109e18161084c565b9050919050565b60006020820190508181036000830152610a01816108b2565b9050919050565b60006020820190508181036000830152610a2181610918565b9050919050565b6000602082019050610a3d600083018461097e565b92915050565b6000604082019050610a58600083018561097e565b610a6560208301846107c8565b9392505050565b600082825260208201905092915050565b6000610a8882610a8f565b9050919050565b600073ffffffffffffffffffffffffffffffffffffffff82169050919050565b6000819050919050565b6000610ac482610acb565b9050919050565b6000610ad682610add565b9050919050565b6000610ae882610a8f565b9050919050565b610af881610aaf565b8114610b0357600080fd5b5056fea2646970667358221220321b6630e4daa2ceec42ddbee7a6706cab9aeda003b15db0eac963bedfb9037064736f6c63430006010033",
  "source": "// SPDX-License-Identifier: MIT\r\npragma solidity >=0.6.0;\r\n\r\npragma experimental ABIEncoderV2;\r\n\r\ncontract Escrow {\r\n    address payable public buyer;\r\n    address payable public seller;\r\n    uint256 public buyerAmount;\r\n    uint256 public sellerAmount;\r\n    uint256 public totalAmount;\r\n    uint256 public deployTime;\r\n    uint256 public expiredTime = 0;\r\n    uint256 public index;\r\n    uint256 public balanceCheck;\r\n\r\n    EscrowManager parentContract;\r\n\r\n    event TotalAmount(uint256 amount);\r\n\r\n    constructor(\r\n        EscrowManager _parentContract,\r\n        address payable _seller,\r\n        address payable _buyer,\r\n        uint256 _buyerAmount,\r\n        uint256 _sellerAmount,\r\n        uint256 _index,\r\n        uint256 _expiredTime\r\n    ) public {\r\n        parentContract = _parentContract;\r\n        seller = _seller;\r\n        buyer = _buyer;\r\n        buyerAmount = _buyerAmount;\r\n        sellerAmount = _sellerAmount;\r\n        expiredTime = _expiredTime;\r\n        deployTime = block.timestamp;\r\n        index = _index;\r\n    }\r\n\r\n    //when the item receive the money he should send it back to the item manager for sombody can withdraw the item later\r\n    //we sending only money without ang data\r\n    receive() external payable {\r\n        require(\r\n            (msg.sender == seller && msg.value == sellerAmount) ||\r\n                (msg.sender == buyer && msg.value == buyerAmount),\r\n            \"You are not allowed OR you try to send unsuitable funds\"\r\n        );\r\n        totalAmount += msg.value;\r\n        balanceCheck = address(this).balance;\r\n        emit TotalAmount(totalAmount);\r\n        parentContract.triggerPayment(index, msg.sender);\r\n\r\n        // (bool success,)=address(parentContract).call{value :msg.value}(abi.encodeWithSignature(\"triggerPayment(uint256,address)\",index,msg.sender));\r\n        // require(success,\"The transaction wasnt successful, canceling\");\r\n    }\r\n\r\n    function getBalance() public view returns (uint256) {\r\n        return address(this).balance;\r\n    }\r\n\r\n    //pivot 1 = seller paid, pivot 2 = buyer paid, pivot 3 = seller and puyer paid\r\n    function moneyRetur(uint256 pivot) public {\r\n        if (pivot == 1) {\r\n            require(\r\n                address(this).balance >= sellerAmount,\r\n                \"You have not money enough money in the contract! (pivot 1)\"\r\n            );\r\n            seller.transfer(sellerAmount);\r\n        } else if (pivot == 2) {\r\n            require(\r\n                address(this).balance >= buyerAmount,\r\n                \"You have not money enough money in the contract! (pivot 2)\"\r\n            );\r\n            buyer.transfer(buyerAmount);\r\n        } else {\r\n            require(\r\n                address(this).balance >= buyerAmount + sellerAmount,\r\n                \"You have not money enough money in the contract! (pivot 3)\"\r\n            );\r\n            seller.transfer(sellerAmount);\r\n            buyer.transfer(buyerAmount);\r\n        }\r\n    }\r\n\r\n    fallback() external {}\r\n}\r\n\r\ncontract EscrowManager {\r\n    uint256 my_number;\r\n\r\n    struct EscrowStruct {\r\n        Escrow _escrow;\r\n        bool _buyerPaid;\r\n        bool _sellerPaid;\r\n        bool buyerConfirmed;\r\n        bool sellerConfirmed;\r\n        EscrowManager.tradeState _state;\r\n    }\r\n    enum tradeState {\r\n        Created,\r\n        Paid,\r\n        Confirmed,\r\n        Canceld\r\n    }\r\n\r\n    mapping(uint256 => EscrowStruct) public trades;\r\n\r\n    // uint256 tradeIndex;\r\n    event TradeStep(\r\n        uint256 _tradeIndex,\r\n        uint256 _step,\r\n        address _tradeAddress,\r\n        uint256 contractBalance\r\n    );\r\n    event ViewTrade(\r\n        uint256 _tradeIndex,\r\n        uint256 _step,\r\n        address _tradeAddress,\r\n        uint256 contractBalance,\r\n        address _sellerAddress,\r\n        address _buyerAddress,\r\n        bool _sellerPaid,\r\n        bool _buyerPaid,\r\n        bool sellerConfirmed,\r\n        bool buyerConfirmed\r\n    );\r\n\r\n    function createTrade(\r\n        uint256 tradeIndex,\r\n        address payable seller,\r\n        address payable buyer,\r\n        uint256 sellerAmount,\r\n        uint256 buyerAmount,\r\n        uint256 expiredTime\r\n    ) public payable returns (string memory) {\r\n        Escrow escrow = new Escrow(\r\n            this,\r\n            seller,\r\n            buyer,\r\n            buyerAmount,\r\n            sellerAmount,\r\n            tradeIndex,\r\n            expiredTime\r\n        );\r\n        trades[tradeIndex]._escrow = escrow;\r\n        trades[tradeIndex]._state = tradeState.Created;\r\n        emit TradeStep(\r\n            tradeIndex,\r\n            uint256(trades[tradeIndex]._state),\r\n            address(trades[tradeIndex]._escrow),\r\n            trades[tradeIndex]._escrow.getBalance()\r\n        );\r\n        // tradeIndex++;\r\n\r\n        return \"This is a test\";\r\n    }\r\n\r\n    function triggerPayment(uint256 _tradeIndex, address sender) public {\r\n        //payable\r\n        require(\r\n            trades[_tradeIndex]._state == tradeState.Created,\r\n            \"Escrow is further in the chain\"\r\n        );\r\n        if (trades[_tradeIndex]._escrow.buyer() == sender) {\r\n            trades[_tradeIndex]._buyerPaid = true;\r\n        }\r\n        if (trades[_tradeIndex]._escrow.seller() == sender) {\r\n            trades[_tradeIndex]._sellerPaid = true;\r\n        }\r\n        if (\r\n            trades[_tradeIndex]._buyerPaid == true &&\r\n            trades[_tradeIndex]._sellerPaid == true\r\n        ) {\r\n            trades[_tradeIndex]._state = tradeState.Paid;\r\n        }\r\n        emit TradeStep(\r\n            _tradeIndex,\r\n            uint256(trades[_tradeIndex]._state),\r\n            address(trades[_tradeIndex]._escrow),\r\n            trades[_tradeIndex]._escrow.getBalance()\r\n        );\r\n    }\r\n\r\n    //Get  escrow balance by ID\r\n    function getBalanceEscrow(uint256 _tradeIndex)\r\n        public\r\n        payable\r\n        returns (uint256 money)\r\n    {\r\n        emit TradeStep(\r\n            _tradeIndex,\r\n            uint256(trades[_tradeIndex]._state),\r\n            address(trades[_tradeIndex]._escrow),\r\n            trades[_tradeIndex]._escrow.getBalance()\r\n        );\r\n        return address(trades[_tradeIndex]._escrow).balance;\r\n    }\r\n\r\n    function getBalance() public view returns (uint256 money) {\r\n        return address(this).balance;\r\n    }\r\n\r\n    // trades[_tradeIndex]._escrow.index\r\n\r\n    function getTradeById(uint256 _tradeIndex)\r\n        public\r\n        payable\r\n        returns (EscrowStruct memory)\r\n    {\r\n        emit ViewTrade(\r\n            _tradeIndex,\r\n            uint256(trades[_tradeIndex]._state),\r\n            address(trades[_tradeIndex]._escrow),\r\n            trades[_tradeIndex]._escrow.getBalance(),\r\n            trades[_tradeIndex]._escrow.seller(),\r\n            trades[_tradeIndex]._escrow.buyer(),\r\n            trades[_tradeIndex]._sellerPaid,\r\n            trades[_tradeIndex]._buyerPaid,\r\n            trades[_tradeIndex].sellerConfirmed,\r\n            trades[_tradeIndex].buyerConfirmed\r\n        );\r\n        return trades[_tradeIndex];\r\n    }\r\n\r\n    //pivot 1 = seller paid, pivot 2 = buyer paid, pivot 3 = seller and puyer paid\r\n    function setAgreement(uint256 _index) public payable {\r\n        require(checkExpiry(_index), \"The contract has expired!\");\r\n        require(\r\n            trades[_index]._state == tradeState.Created ||\r\n                trades[_index]._state == tradeState.Paid,\r\n            \"Escrow is further in the chain\"\r\n        );\r\n\r\n        if (trades[_index]._escrow.getBalance() > 0) {\r\n            if (\r\n                trades[_index]._buyerPaid == true &&\r\n                trades[_index]._sellerPaid == true\r\n            ) {\r\n                // pivot 3 = bouth sides paids\r\n                require(\r\n                    trades[_index]._state == tradeState.Paid,\r\n                    \"Escrow is further in the chain\"\r\n                );\r\n\r\n                trades[_index]._state = tradeState.Confirmed;\r\n                trades[_index].buyerConfirmed = true;\r\n                trades[_index].sellerConfirmed = true;\r\n                trades[_index]._escrow.moneyRetur(3);\r\n            } else {\r\n                if (trades[_index]._sellerPaid) {\r\n                    // pivot 1 = only seller paid\r\n                    trades[_index]._state = tradeState.Canceld;\r\n                    trades[_index]._escrow.moneyRetur(1);\r\n                } else {\r\n                    // pivot 2 = only buyer paid\r\n                    trades[_index]._state = tradeState.Canceld;\r\n                    trades[_index]._escrow.moneyRetur(2);\r\n                }\r\n            }\r\n        }\r\n    }\r\n\r\n    function checkExpiry(uint256 _index) public view returns (bool success) {\r\n        // uint256 days_left = trades[_index]._escrow.expiredTime();\r\n\r\n        if (trades[_index]._escrow.expiredTime()>block.timestamp\r\n\r\n            // trades[_index]._escrow.deployTime() + (days_left) * (1 days) >\r\n            // block.timestamp\r\n        ) {\r\n            return true;\r\n        } else {\r\n            return false;\r\n        }\r\n    }\r\n}\r\n",
  "sourcePath": "c:\\Users\\me\\Desktop\\לימודים\\שנה ג\\פרוייקט גמר\\TrustMe22.5\\EscrowContract\\contracts\\EscrowManager.sol",
  "compiler": {
    "name": "solc",
    "version": "0.6.1+commit.e6f7d5a4.Emscripten.clang"
  },
  "schemaVersion": "3.4.7",
  "updatedAt": "2022-05-25T07:43:40.485Z",
  "devdoc": {
    "methods": {}
  },
  "userdoc": {
    "methods": {}
  }
}