{
  "contractName": "EscrowManager",
  "abi": [
    {
      "anonymous": false,
      "inputs": [
        {
          "indexed": false,
          "internalType": "uint256",
          "name": "_tradeIndex",
          "type": "uint256"
        },
        {
          "indexed": false,
          "internalType": "uint256",
          "name": "_step",
          "type": "uint256"
        },
        {
          "indexed": false,
          "internalType": "address",
          "name": "_tradeAddress",
          "type": "address"
        },
        {
          "indexed": false,
          "internalType": "uint256",
          "name": "contractBalance",
          "type": "uint256"
        }
      ],
      "name": "TradeStep",
      "type": "event"
    },
    {
      "anonymous": false,
      "inputs": [
        {
          "indexed": false,
          "internalType": "uint256",
          "name": "_tradeIndex",
          "type": "uint256"
        },
        {
          "indexed": false,
          "internalType": "uint256",
          "name": "_step",
          "type": "uint256"
        },
        {
          "indexed": false,
          "internalType": "address",
          "name": "_tradeAddress",
          "type": "address"
        },
        {
          "indexed": false,
          "internalType": "uint256",
          "name": "contractBalance",
          "type": "uint256"
        },
        {
          "indexed": false,
          "internalType": "address",
          "name": "_sellerAddress",
          "type": "address"
        },
        {
          "indexed": false,
          "internalType": "address",
          "name": "_buyerAddress",
          "type": "address"
        },
        {
          "indexed": false,
          "internalType": "bool",
          "name": "_sellerPaid",
          "type": "bool"
        },
        {
          "indexed": false,
          "internalType": "bool",
          "name": "_buyerPaid",
          "type": "bool"
        },
        {
          "indexed": false,
          "internalType": "bool",
          "name": "sellerConfirmed",
          "type": "bool"
        },
        {
          "indexed": false,
          "internalType": "bool",
          "name": "buyerConfirmed",
          "type": "bool"
        }
      ],
      "name": "ViewTrade",
      "type": "event"
    },
    {
      "inputs": [
        {
          "internalType": "uint256",
          "name": "",
          "type": "uint256"
        }
      ],
      "name": "trades",
      "outputs": [
        {
          "internalType": "contract Escrow",
          "name": "_escrow",
          "type": "address"
        },
        {
          "internalType": "bool",
          "name": "_buyerPaid",
          "type": "bool"
        },
        {
          "internalType": "bool",
          "name": "_sellerPaid",
          "type": "bool"
        },
        {
          "internalType": "bool",
          "name": "buyerConfirmed",
          "type": "bool"
        },
        {
          "internalType": "bool",
          "name": "sellerConfirmed",
          "type": "bool"
        },
        {
          "internalType": "enum EscrowManager.tradeState",
          "name": "_state",
          "type": "uint8"
        }
      ],
      "stateMutability": "view",
      "type": "function",
      "constant": true
    },
    {
      "inputs": [
        {
          "internalType": "address payable",
          "name": "seller",
          "type": "address"
        },
        {
          "internalType": "address payable",
          "name": "buyer",
          "type": "address"
        },
        {
          "internalType": "uint256",
          "name": "sellerAmount",
          "type": "uint256"
        },
        {
          "internalType": "uint256",
          "name": "buyerAmount",
          "type": "uint256"
        },
        {
          "internalType": "uint256",
          "name": "expiredTime",
          "type": "uint256"
        }
      ],
      "name": "createTrade",
      "outputs": [
        {
          "internalType": "string",
          "name": "",
          "type": "string"
        }
      ],
      "stateMutability": "payable",
      "type": "function",
      "payable": true
    },
    {
      "inputs": [
        {
          "internalType": "uint256",
          "name": "_tradeIndex",
          "type": "uint256"
        },
        {
          "internalType": "address",
          "name": "sender",
          "type": "address"
        }
      ],
      "name": "triggerPayment",
      "outputs": [],
      "stateMutability": "nonpayable",
      "type": "function"
    },
    {
      "inputs": [
        {
          "internalType": "uint256",
          "name": "_tradeIndex",
          "type": "uint256"
        }
      ],
      "name": "getBalanceEscrow",
      "outputs": [
        {
          "internalType": "uint256",
          "name": "money",
          "type": "uint256"
        }
      ],
      "stateMutability": "payable",
      "type": "function",
      "payable": true
    },
    {
      "inputs": [],
      "name": "getBalance",
      "outputs": [
        {
          "internalType": "uint256",
          "name": "money",
          "type": "uint256"
        }
      ],
      "stateMutability": "view",
      "type": "function",
      "constant": true
    },
    {
      "inputs": [
        {
          "internalType": "uint256",
          "name": "_tradeIndex",
          "type": "uint256"
        }
      ],
      "name": "getTradeById",
      "outputs": [
        {
          "components": [
            {
              "internalType": "contract Escrow",
              "name": "_escrow",
              "type": "address"
            },
            {
              "internalType": "bool",
              "name": "_buyerPaid",
              "type": "bool"
            },
            {
              "internalType": "bool",
              "name": "_sellerPaid",
              "type": "bool"
            },
            {
              "internalType": "bool",
              "name": "buyerConfirmed",
              "type": "bool"
            },
            {
              "internalType": "bool",
              "name": "sellerConfirmed",
              "type": "bool"
            },
            {
              "internalType": "enum EscrowManager.tradeState",
              "name": "_state",
              "type": "uint8"
            }
          ],
          "internalType": "struct EscrowManager.EscrowStruct",
          "name": "",
          "type": "tuple"
        }
      ],
      "stateMutability": "payable",
      "type": "function",
      "payable": true
    },
    {
      "inputs": [
        {
          "internalType": "uint256",
          "name": "_index",
          "type": "uint256"
        }
      ],
      "name": "setAgreement",
      "outputs": [],
      "stateMutability": "payable",
      "type": "function",
      "payable": true
    },
    {
      "inputs": [
        {
          "internalType": "uint256",
          "name": "_index",
          "type": "uint256"
        }
      ],
      "name": "checkExpiry",
      "outputs": [
        {
          "internalType": "bool",
          "name": "success",
          "type": "bool"
        }
      ],
      "stateMutability": "view",
      "type": "function",
      "constant": true
    }
  ],
  "bytecode": "0x608060405234801561001057600080fd5b50612ed3806100206000396000f3fe608060405260043610620000865760003560e01c8063b0c149e31162000055578063b0c149e31462000170578063d6ba77a6146200019e578063df9a07f514620001d4578063e4357cd714620001f45762000086565b806312065fe0146200008b5780631e6c598e14620000bb578063726666841462000104578063ad206bef146200013a575b600080fd5b3480156200009857600080fd5b50620000a362000238565b604051620000b2919062001d55565b60405180910390f35b348015620000c857600080fd5b50620000e76004803603620000e19190810190620018b0565b62000240565b604051620000fb9695949392919062001c0c565b60405180910390f35b6200012260048036036200011c9190810190620018b0565b620002dd565b60405162000131919062001d38565b60405180910390f35b620001586004803603620001529190810190620018b0565b6200075e565b60405162000167919062001d55565b60405180910390f35b3480156200017d57600080fd5b506200019c600480360362000196919081019062001908565b62000910565b005b620001bc6004803603620001b691908101906200182e565b62000dc4565b604051620001cb919062001cd0565b60405180910390f35b620001f26004803603620001ec9190810190620018b0565b6200105a565b005b3480156200020157600080fd5b506200022060048036036200021a9190810190620018b0565b6200164b565b6040516200022f919062001b72565b60405180910390f35b600047905090565b60016020528060005260406000206000915090508060000160009054906101000a900473ffffffffffffffffffffffffffffffffffffffff16908060000160149054906101000a900460ff16908060000160159054906101000a900460ff16908060000160169054906101000a900460ff16908060000160179054906101000a900460ff16908060000160189054906101000a900460ff16905086565b620002e762001721565b7f6b6d9127f0598f923bbeb725c8fe60a460f3f528e8dbbc7fb743b07ea298ec01826001600085815260200190815260200160002060000160189054906101000a900460ff1660038111156200033957fe5b6001600086815260200190815260200160002060000160009054906101000a900473ffffffffffffffffffffffffffffffffffffffff166001600087815260200190815260200160002060000160009054906101000a900473ffffffffffffffffffffffffffffffffffffffff1673ffffffffffffffffffffffffffffffffffffffff166312065fe06040518163ffffffff1660e01b815260040160206040518083038186803b158015620003ed57600080fd5b505afa15801562000402573d6000803e3d6000fd5b505050506040513d601f19601f82011682018060405250620004289190810190620018dc565b6001600088815260200190815260200160002060000160009054906101000a900473ffffffffffffffffffffffffffffffffffffffff1673ffffffffffffffffffffffffffffffffffffffff166308551a536040518163ffffffff1660e01b815260040160206040518083038186803b158015620004a557600080fd5b505afa158015620004ba573d6000803e3d6000fd5b505050506040513d601f19601f82011682018060405250620004e0919081019062001802565b6001600089815260200190815260200160002060000160009054906101000a900473ffffffffffffffffffffffffffffffffffffffff1673ffffffffffffffffffffffffffffffffffffffff16637150d8ae6040518163ffffffff1660e01b815260040160206040518083038186803b1580156200055d57600080fd5b505afa15801562000572573d6000803e3d6000fd5b505050506040513d601f19601f8201168201806040525062000598919081019062001802565b600160008a815260200190815260200160002060000160159054906101000a900460ff16600160008b815260200190815260200160002060000160149054906101000a900460ff16600160008c815260200190815260200160002060000160179054906101000a900460ff16600160008d815260200190815260200160002060000160169054906101000a900460ff16604051620006409a9998979695949392919062001dbf565b60405180910390a1600160008381526020019081526020016000206040518060c00160405290816000820160009054906101000a900473ffffffffffffffffffffffffffffffffffffffff1673ffffffffffffffffffffffffffffffffffffffff1673ffffffffffffffffffffffffffffffffffffffff1681526020016000820160149054906101000a900460ff161515151581526020016000820160159054906101000a900460ff161515151581526020016000820160169054906101000a900460ff161515151581526020016000820160179054906101000a900460ff161515151581526020016000820160189054906101000a900460ff1660038111156200074757fe5b60038111156200075357fe5b815250509050919050565b60007f747ecfa1692e3600e8e273673642f0787684e5abf5c84d7fa632af90469192ce826001600085815260200190815260200160002060000160189054906101000a900460ff166003811115620007b257fe5b6001600086815260200190815260200160002060000160009054906101000a900473ffffffffffffffffffffffffffffffffffffffff166001600087815260200190815260200160002060000160009054906101000a900473ffffffffffffffffffffffffffffffffffffffff1673ffffffffffffffffffffffffffffffffffffffff166312065fe06040518163ffffffff1660e01b815260040160206040518083038186803b1580156200086657600080fd5b505afa1580156200087b573d6000803e3d6000fd5b505050506040513d601f19601f82011682018060405250620008a19190810190620018dc565b604051620008b3949392919062001d72565b60405180910390a16001600083815260200190815260200160002060000160009054906101000a900473ffffffffffffffffffffffffffffffffffffffff1673ffffffffffffffffffffffffffffffffffffffff16319050919050565b600060038111156200091e57fe5b6001600084815260200190815260200160002060000160189054906101000a900460ff1660038111156200094e57fe5b1462000991576040517f08c379a0000000000000000000000000000000000000000000000000000000008152600401620009889062001cf4565b60405180910390fd5b8073ffffffffffffffffffffffffffffffffffffffff166001600084815260200190815260200160002060000160009054906101000a900473ffffffffffffffffffffffffffffffffffffffff1673ffffffffffffffffffffffffffffffffffffffff16637150d8ae6040518163ffffffff1660e01b815260040160206040518083038186803b15801562000a2557600080fd5b505afa15801562000a3a573d6000803e3d6000fd5b505050506040513d601f19601f8201168201806040525062000a60919081019062001802565b73ffffffffffffffffffffffffffffffffffffffff16141562000aac57600180600084815260200190815260200160002060000160146101000a81548160ff0219169083151502179055505b8073ffffffffffffffffffffffffffffffffffffffff166001600084815260200190815260200160002060000160009054906101000a900473ffffffffffffffffffffffffffffffffffffffff1673ffffffffffffffffffffffffffffffffffffffff166308551a536040518163ffffffff1660e01b815260040160206040518083038186803b15801562000b4057600080fd5b505afa15801562000b55573d6000803e3d6000fd5b505050506040513d601f19601f8201168201806040525062000b7b919081019062001802565b73ffffffffffffffffffffffffffffffffffffffff16141562000bc757600180600084815260200190815260200160002060000160156101000a81548160ff0219169083151502179055505b600115156001600084815260200190815260200160002060000160149054906101000a900460ff16151514801562000c265750600115156001600084815260200190815260200160002060000160159054906101000a900460ff161515145b1562000c6557600180600084815260200190815260200160002060000160186101000a81548160ff0219169083600381111562000c5f57fe5b02179055505b7f747ecfa1692e3600e8e273673642f0787684e5abf5c84d7fa632af90469192ce826001600085815260200190815260200160002060000160189054906101000a900460ff16600381111562000cb757fe5b6001600086815260200190815260200160002060000160009054906101000a900473ffffffffffffffffffffffffffffffffffffffff166001600087815260200190815260200160002060000160009054906101000a900473ffffffffffffffffffffffffffffffffffffffff1673ffffffffffffffffffffffffffffffffffffffff166312065fe06040518163ffffffff1660e01b815260040160206040518083038186803b15801562000d6b57600080fd5b505afa15801562000d80573d6000803e3d6000fd5b505050506040513d601f19601f8201168201806040525062000da69190810190620018dc565b60405162000db8949392919062001d72565b60405180910390a15050565b6060600030878786886002548860405162000ddf9062001781565b62000df1979695949392919062001b8f565b604051809103906000f08015801562000e0e573d6000803e3d6000fd5b5090508060016000600254815260200190815260200160002060000160006101000a81548173ffffffffffffffffffffffffffffffffffffffff021916908373ffffffffffffffffffffffffffffffffffffffff160217905550600060016000600254815260200190815260200160002060000160186101000a81548160ff0219169083600381111562000e9e57fe5b02179055507f747ecfa1692e3600e8e273673642f0787684e5abf5c84d7fa632af90469192ce60025460016000600254815260200190815260200160002060000160189054906101000a900460ff16600381111562000ef957fe5b60016000600254815260200190815260200160002060000160009054906101000a900473ffffffffffffffffffffffffffffffffffffffff1660016000600254815260200190815260200160002060000160009054906101000a900473ffffffffffffffffffffffffffffffffffffffff1673ffffffffffffffffffffffffffffffffffffffff166312065fe06040518163ffffffff1660e01b815260040160206040518083038186803b15801562000fb157600080fd5b505afa15801562000fc6573d6000803e3d6000fd5b505050506040513d601f19601f8201168201806040525062000fec9190810190620018dc565b60405162000ffe949392919062001d72565b60405180910390a16002600081548092919060010191905055506040518060400160405280600e81526020017f546869732069732061207465737400000000000000000000000000000000000081525091505095945050505050565b62001065816200164b565b620010a7576040517f08c379a00000000000000000000000000000000000000000000000000000000081526004016200109e9062001d16565b60405180910390fd5b60006003811115620010b557fe5b6001600083815260200190815260200160002060000160189054906101000a900460ff166003811115620010e557fe5b14806200112d575060016003811115620010fb57fe5b6001600083815260200190815260200160002060000160189054906101000a900460ff1660038111156200112b57fe5b145b6200116f576040517f08c379a0000000000000000000000000000000000000000000000000000000008152600401620011669062001cf4565b60405180910390fd5b60006001600083815260200190815260200160002060000160009054906101000a900473ffffffffffffffffffffffffffffffffffffffff1673ffffffffffffffffffffffffffffffffffffffff166312065fe06040518163ffffffff1660e01b815260040160206040518083038186803b158015620011ee57600080fd5b505afa15801562001203573d6000803e3d6000fd5b505050506040513d601f19601f82011682018060405250620012299190810190620018dc565b11156200164857600115156001600083815260200190815260200160002060000160149054906101000a900460ff1615151480156200128f5750600115156001600083815260200190815260200160002060000160159054906101000a900460ff161515145b15620014575760016003811115620012a357fe5b6001600083815260200190815260200160002060000160189054906101000a900460ff166003811115620012d357fe5b1462001316576040517f08c379a00000000000000000000000000000000000000000000000000000000081526004016200130d9062001cf4565b60405180910390fd5b60026001600083815260200190815260200160002060000160186101000a81548160ff021916908360038111156200134a57fe5b0217905550600180600083815260200190815260200160002060000160166101000a81548160ff021916908315150217905550600180600083815260200190815260200160002060000160176101000a81548160ff0219169083151502179055506001600082815260200190815260200160002060000160009054906101000a900473ffffffffffffffffffffffffffffffffffffffff1673ffffffffffffffffffffffffffffffffffffffff1663f372a75a60036040518263ffffffff1660e01b81526004016200141d919062001cb3565b600060405180830381600087803b1580156200143857600080fd5b505af11580156200144d573d6000803e3d6000fd5b5050505062001647565b6001600082815260200190815260200160002060000160159054906101000a900460ff1615620015665760036001600083815260200190815260200160002060000160186101000a81548160ff02191690836003811115620014b557fe5b02179055506001600082815260200190815260200160002060000160009054906101000a900473ffffffffffffffffffffffffffffffffffffffff1673ffffffffffffffffffffffffffffffffffffffff1663f372a75a60016040518263ffffffff1660e01b81526004016200152c919062001c79565b600060405180830381600087803b1580156200154757600080fd5b505af11580156200155c573d6000803e3d6000fd5b5050505062001646565b60036001600083815260200190815260200160002060000160186101000a81548160ff021916908360038111156200159a57fe5b02179055506001600082815260200190815260200160002060000160009054906101000a900473ffffffffffffffffffffffffffffffffffffffff1673ffffffffffffffffffffffffffffffffffffffff1663f372a75a60026040518263ffffffff1660e01b815260040162001611919062001c96565b600060405180830381600087803b1580156200162c57600080fd5b505af115801562001641573d6000803e3d6000fd5b505050505b5b5b50565b6000426001600084815260200190815260200160002060000160009054906101000a900473ffffffffffffffffffffffffffffffffffffffff1673ffffffffffffffffffffffffffffffffffffffff16638e32e4216040518163ffffffff1660e01b815260040160206040518083038186803b158015620016cb57600080fd5b505afa158015620016e0573d6000803e3d6000fd5b505050506040513d601f19601f82011682018060405250620017069190810190620018dc565b11156200171757600190506200171c565b600090505b919050565b6040518060c00160405280600073ffffffffffffffffffffffffffffffffffffffff168152602001600015158152602001600015158152602001600015158152602001600015158152602001600060038111156200177b57fe5b81525090565b610e20806200207e83390190565b600081359050620017a0816200202f565b92915050565b600081359050620017b78162002049565b92915050565b600081519050620017ce8162002049565b92915050565b600081359050620017e58162002063565b92915050565b600081519050620017fc8162002063565b92915050565b6000602082840312156200181557600080fd5b60006200182584828501620017bd565b91505092915050565b600080600080600060a086880312156200184757600080fd5b60006200185788828901620017a6565b95505060206200186a88828901620017a6565b94505060406200187d88828901620017d4565b93505060606200189088828901620017d4565b9250506080620018a388828901620017d4565b9150509295509295909350565b600060208284031215620018c357600080fd5b6000620018d384828501620017d4565b91505092915050565b600060208284031215620018ef57600080fd5b6000620018ff84828501620017eb565b91505092915050565b600080604083850312156200191c57600080fd5b60006200192c85828601620017d4565b92505060206200193f858286016200178f565b9150509250929050565b620019548162001efe565b82525050565b620019658162001e9f565b82525050565b620019768162001eb3565b82525050565b620019878162001eb3565b82525050565b620019988162001f12565b82525050565b620019a98162001f3a565b82525050565b620019ba8162001f3a565b82525050565b620019cb8162001f62565b82525050565b620019dc8162001f62565b82525050565b620019ed8162001f76565b82525050565b620019fe8162001f8a565b82525050565b62001a0f8162001f9e565b82525050565b600062001a228262001e6f565b62001a2e818562001e7a565b935062001a4081856020860162001fda565b62001a4b8162002010565b840191505092915050565b600062001a65601e8362001e7a565b91507f457363726f77206973206675727468657220696e2074686520636861696e00006000830152602082019050919050565b600062001aa760198362001e7a565b91507f54686520636f6e747261637420686173206578706972656421000000000000006000830152602082019050919050565b60c08201600082015162001af260008501826200199e565b50602082015162001b0760208501826200196b565b50604082015162001b1c60408501826200196b565b50606082015162001b3160608501826200196b565b50608082015162001b4660808501826200196b565b5060a082015162001b5b60a0850182620019c0565b50505050565b62001b6c8162001ef4565b82525050565b600060208201905062001b8960008301846200197c565b92915050565b600060e08201905062001ba6600083018a6200198d565b62001bb560208301896200195a565b62001bc460408301886200195a565b62001bd3606083018762001b61565b62001be2608083018662001b61565b62001bf160a083018562001b61565b62001c0060c083018462001b61565b98975050505050505050565b600060c08201905062001c236000830189620019af565b62001c3260208301886200197c565b62001c4160408301876200197c565b62001c5060608301866200197c565b62001c5f60808301856200197c565b62001c6e60a0830184620019d1565b979650505050505050565b600060208201905062001c906000830184620019e2565b92915050565b600060208201905062001cad6000830184620019f3565b92915050565b600060208201905062001cca600083018462001a04565b92915050565b6000602082019050818103600083015262001cec818462001a15565b905092915050565b6000602082019050818103600083015262001d0f8162001a56565b9050919050565b6000602082019050818103600083015262001d318162001a98565b9050919050565b600060c08201905062001d4f600083018462001ada565b92915050565b600060208201905062001d6c600083018462001b61565b92915050565b600060808201905062001d89600083018762001b61565b62001d98602083018662001b61565b62001da7604083018562001949565b62001db6606083018462001b61565b95945050505050565b60006101408201905062001dd7600083018d62001b61565b62001de6602083018c62001b61565b62001df5604083018b62001949565b62001e04606083018a62001b61565b62001e13608083018962001949565b62001e2260a083018862001949565b62001e3160c08301876200197c565b62001e4060e08301866200197c565b62001e506101008301856200197c565b62001e606101208301846200197c565b9b9a5050505050505050505050565b600081519050919050565b600082825260208201905092915050565b600062001e988262001ed4565b9050919050565b600062001eac8262001ed4565b9050919050565b60008115159050919050565b600081905062001ecf8262002021565b919050565b600073ffffffffffffffffffffffffffffffffffffffff82169050919050565b6000819050919050565b600062001f0b8262001fb2565b9050919050565b600062001f1f8262001f26565b9050919050565b600062001f338262001ed4565b9050919050565b600062001f478262001f4e565b9050919050565b600062001f5b8262001ed4565b9050919050565b600062001f6f8262001ebf565b9050919050565b600062001f838262001ef4565b9050919050565b600062001f978262001ef4565b9050919050565b600062001fab8262001ef4565b9050919050565b600062001fbf8262001fc6565b9050919050565b600062001fd38262001ed4565b9050919050565b60005b8381101562001ffa57808201518184015260208101905062001fdd565b838111156200200a576000848401525b50505050565b6000601f19601f8301169050919050565b600481106200202c57fe5b50565b6200203a8162001e8b565b81146200204657600080fd5b50565b620020548162001e9f565b81146200206057600080fd5b50565b6200206e8162001ef4565b81146200207a57600080fd5b5056fe608060405260006006553480156200001657600080fd5b5060405162000e2038038062000e2083398181016040526200003c919081019062000173565b86600960006101000a81548173ffffffffffffffffffffffffffffffffffffffff021916908373ffffffffffffffffffffffffffffffffffffffff16021790555085600160006101000a81548173ffffffffffffffffffffffffffffffffffffffff021916908373ffffffffffffffffffffffffffffffffffffffff160217905550846000806101000a81548173ffffffffffffffffffffffffffffffffffffffff021916908373ffffffffffffffffffffffffffffffffffffffff160217905550836002819055508260038190555080600681905550426005819055508160078190555050505050505050620002d4565b6000815190506200013f8162000286565b92915050565b6000815190506200015681620002a0565b92915050565b6000815190506200016d81620002ba565b92915050565b600080600080600080600060e0888a0312156200018f57600080fd5b60006200019f8a828b0162000145565b9750506020620001b28a828b016200012e565b9650506040620001c58a828b016200012e565b9550506060620001d88a828b016200015c565b9450506080620001eb8a828b016200015c565b93505060a0620001fe8a828b016200015c565b92505060c0620002118a828b016200015c565b91505092959891949750929550565b60006200022d826200025c565b9050919050565b600062000241826200025c565b9050919050565b6000620002558262000220565b9050919050565b600073ffffffffffffffffffffffffffffffffffffffff82169050919050565b6000819050919050565b620002918162000234565b81146200029d57600080fd5b50565b620002ab8162000248565b8114620002b757600080fd5b50565b620002c5816200027c565b8114620002d157600080fd5b50565b610b3c80620002e46000396000f3fe6080604052600436106100a05760003560e01c80634ba6f28e116100645780634ba6f28e1461036f5780635f0bac561461039a5780637150d8ae146103c55780637a40624b146103f05780638e32e4211461041b578063f372a75a1461044657610289565b806308551a531461029857806312065fe0146102c35780631a39d8ef146102ee5780632986c0e51461031957806347b2c7361461034457610289565b3661028957600160009054906101000a900473ffffffffffffffffffffffffffffffffffffffff1673ffffffffffffffffffffffffffffffffffffffff163373ffffffffffffffffffffffffffffffffffffffff16148015610103575060035434145b8061016757506000809054906101000a900473ffffffffffffffffffffffffffffffffffffffff1673ffffffffffffffffffffffffffffffffffffffff163373ffffffffffffffffffffffffffffffffffffffff16148015610166575060025434145b5b6101a6576040517f08c379a000000000000000000000000000000000000000000000000000000000815260040161019d906109e8565b60405180910390fd5b34600460008282540192505081905550476008819055507fcc8a945cefd3d387766a176b61e5af26be3c241ba32f62dd5a8c1ebfb30f3f506004546040516101ee9190610a28565b60405180910390a1600960009054906101000a900473ffffffffffffffffffffffffffffffffffffffff1673ffffffffffffffffffffffffffffffffffffffff1663b0c149e3600754336040518363ffffffff1660e01b8152600401610255929190610a43565b600060405180830381600087803b15801561026f57600080fd5b505af1158015610283573d6000803e3d6000fd5b50505050005b34801561029557600080fd5b50005b3480156102a457600080fd5b506102ad61046f565b6040516102ba919061098d565b60405180910390f35b3480156102cf57600080fd5b506102d8610495565b6040516102e59190610a28565b60405180910390f35b3480156102fa57600080fd5b5061030361049d565b6040516103109190610a28565b60405180910390f35b34801561032557600080fd5b5061032e6104a3565b60405161033b9190610a28565b60405180910390f35b34801561035057600080fd5b506103596104a9565b6040516103669190610a28565b60405180910390f35b34801561037b57600080fd5b506103846104af565b6040516103919190610a28565b60405180910390f35b3480156103a657600080fd5b506103af6104b5565b6040516103bc9190610a28565b60405180910390f35b3480156103d157600080fd5b506103da6104bb565b6040516103e7919061098d565b60405180910390f35b3480156103fc57600080fd5b506104056104e0565b6040516104129190610a28565b60405180910390f35b34801561042757600080fd5b506104306104e6565b60405161043d9190610a28565b60405180910390f35b34801561045257600080fd5b5061046d6004803603610468919081019061079f565b6104ec565b005b600160009054906101000a900473ffffffffffffffffffffffffffffffffffffffff1681565b600047905090565b60045481565b60075481565b60035481565b60085481565b60025481565b6000809054906101000a900473ffffffffffffffffffffffffffffffffffffffff1681565b60055481565b60065481565b60018114156105aa5760035447101561053a576040517f08c379a0000000000000000000000000000000000000000000000000000000008152600401610531906109c8565b60405180910390fd5b600160009054906101000a900473ffffffffffffffffffffffffffffffffffffffff1673ffffffffffffffffffffffffffffffffffffffff166108fc6003549081150290604051600060405180830381858888f193505050501580156105a4573d6000803e3d6000fd5b50610787565b6002811415610667576002544710156105f8576040517f08c379a00000000000000000000000000000000000000000000000000000000081526004016105ef906109a8565b60405180910390fd5b6000809054906101000a900473ffffffffffffffffffffffffffffffffffffffff1673ffffffffffffffffffffffffffffffffffffffff166108fc6002549081150290604051600060405180830381858888f19350505050158015610661573d6000803e3d6000fd5b50610786565b600354600254014710156106b0576040517f08c379a00000000000000000000000000000000000000000000000000000000081526004016106a790610a08565b60405180910390fd5b600160009054906101000a900473ffffffffffffffffffffffffffffffffffffffff1673ffffffffffffffffffffffffffffffffffffffff166108fc6003549081150290604051600060405180830381858888f1935050505015801561071a573d6000803e3d6000fd5b506000809054906101000a900473ffffffffffffffffffffffffffffffffffffffff1673ffffffffffffffffffffffffffffffffffffffff166108fc6002549081150290604051600060405180830381858888f19350505050158015610784573d6000803e3d6000fd5b505b5b50565b60008135905061079981610aef565b92915050565b6000602082840312156107b157600080fd5b60006107bf8482850161078a565b91505092915050565b6107d181610ab9565b82525050565b6107e081610a7d565b82525050565b60006107f3603a83610a6c565b91507f596f752068617665206e6f74206d6f6e657920656e6f756768206d6f6e65792060008301527f696e2074686520636f6e74726163742120287069766f742032290000000000006020830152604082019050919050565b6000610859603a83610a6c565b91507f596f752068617665206e6f74206d6f6e657920656e6f756768206d6f6e65792060008301527f696e2074686520636f6e74726163742120287069766f742031290000000000006020830152604082019050919050565b60006108bf603783610a6c565b91507f596f7520617265206e6f7420616c6c6f776564204f5220796f7520747279207460008301527f6f2073656e6420756e7375697461626c652066756e64730000000000000000006020830152604082019050919050565b6000610925603a83610a6c565b91507f596f752068617665206e6f74206d6f6e657920656e6f756768206d6f6e65792060008301527f696e2074686520636f6e74726163742120287069766f742033290000000000006020830152604082019050919050565b61098781610aaf565b82525050565b60006020820190506109a260008301846107d7565b92915050565b600060208201905081810360008301526109c1816107e6565b9050919050565b600060208201905081810360008301526109e18161084c565b9050919050565b60006020820190508181036000830152610a01816108b2565b9050919050565b60006020820190508181036000830152610a2181610918565b9050919050565b6000602082019050610a3d600083018461097e565b92915050565b6000604082019050610a58600083018561097e565b610a6560208301846107c8565b9392505050565b600082825260208201905092915050565b6000610a8882610a8f565b9050919050565b600073ffffffffffffffffffffffffffffffffffffffff82169050919050565b6000819050919050565b6000610ac482610acb565b9050919050565b6000610ad682610add565b9050919050565b6000610ae882610a8f565b9050919050565b610af881610aaf565b8114610b0357600080fd5b5056fea26469706673582212202f9a7ce502d6ed6e3cf884fa0c9129802d5362f35bf9c41ab344be24281e219564736f6c63430006010033a26469706673582212200122da0784a8e63b0297d50c11fe4064dc823325ec19ce789597ea5611bbc86c64736f6c63430006010033",
  "source": "// SPDX-License-Identifier: MIT\r\npragma solidity >=0.6.0;\r\n\r\npragma experimental ABIEncoderV2;\r\n\r\ncontract Escrow {\r\n    address payable public buyer;\r\n    address payable public seller;\r\n    uint256 public buyerAmount;\r\n    uint256 public sellerAmount;\r\n    uint256 public totalAmount;\r\n    uint256 public deployTime;\r\n    uint256 public expiredTime = 0;\r\n    uint256 public index;\r\n    uint256 public balanceCheck;\r\n\r\n    EscrowManager parentContract;\r\n\r\n    event TotalAmount(uint256 amount);\r\n\r\n    constructor(\r\n        EscrowManager _parentContract,\r\n        address payable _seller,\r\n        address payable _buyer,\r\n        uint256 _buyerAmount,\r\n        uint256 _sellerAmount,\r\n        uint256 _index,\r\n        uint256 _expiredTime\r\n    ) public {\r\n        parentContract = _parentContract;\r\n        seller = _seller;\r\n        buyer = _buyer;\r\n        buyerAmount = _buyerAmount;\r\n        sellerAmount = _sellerAmount;\r\n        expiredTime = _expiredTime;\r\n        deployTime = block.timestamp;\r\n        index = _index;\r\n    }\r\n\r\n    //when the item receive the money he should send it back to the item manager for sombody can withdraw the item later\r\n    //we sending only money without ang data\r\n    receive() external payable {\r\n        require(\r\n            (msg.sender == seller && msg.value == sellerAmount) ||\r\n                (msg.sender == buyer && msg.value == buyerAmount),\r\n            \"You are not allowed OR you try to send unsuitable funds\"\r\n        );\r\n        totalAmount += msg.value;\r\n        balanceCheck = address(this).balance;\r\n        emit TotalAmount(totalAmount);\r\n        parentContract.triggerPayment(index, msg.sender);\r\n\r\n        // (bool success,)=address(parentContract).call{value :msg.value}(abi.encodeWithSignature(\"triggerPayment(uint256,address)\",index,msg.sender));\r\n        // require(success,\"The transaction wasnt successful, canceling\");\r\n    }\r\n\r\n    function getBalance() public view returns (uint256) {\r\n        return address(this).balance;\r\n    }\r\n\r\n    //pivot 1 = seller paid, pivot 2 = buyer paid, pivot 3 = seller and puyer paid\r\n    function moneyRetur(uint256 pivot) public {\r\n        if (pivot == 1) {\r\n            require(\r\n                address(this).balance >= sellerAmount,\r\n                \"You have not money enough money in the contract! (pivot 1)\"\r\n            );\r\n            seller.transfer(sellerAmount);\r\n        } else if (pivot == 2) {\r\n            require(\r\n                address(this).balance >= buyerAmount,\r\n                \"You have not money enough money in the contract! (pivot 2)\"\r\n            );\r\n            buyer.transfer(buyerAmount);\r\n        } else {\r\n            require(\r\n                address(this).balance >= buyerAmount + sellerAmount,\r\n                \"You have not money enough money in the contract! (pivot 3)\"\r\n            );\r\n            seller.transfer(sellerAmount);\r\n            buyer.transfer(buyerAmount);\r\n        }\r\n    }\r\n\r\n    fallback() external {}\r\n}\r\n\r\ncontract EscrowManager {\r\n    uint256 my_number;\r\n\r\n    struct EscrowStruct {\r\n        Escrow _escrow;\r\n        bool _buyerPaid;\r\n        bool _sellerPaid;\r\n        bool buyerConfirmed;\r\n        bool sellerConfirmed;\r\n        EscrowManager.tradeState _state;\r\n    }\r\n    enum tradeState {\r\n        Created,\r\n        Paid,\r\n        Confirmed,\r\n        Canceld\r\n    }\r\n\r\n    mapping(uint256 => EscrowStruct) public trades;\r\n\r\n    uint256 tradeIndex;\r\n    event TradeStep(\r\n        uint256 _tradeIndex,\r\n        uint256 _step,\r\n        address _tradeAddress,\r\n        uint256 contractBalance\r\n    );\r\n    event ViewTrade(\r\n        uint256 _tradeIndex,\r\n        uint256 _step,\r\n        address _tradeAddress,\r\n        uint256 contractBalance,\r\n        address _sellerAddress,\r\n        address _buyerAddress,\r\n        bool _sellerPaid,\r\n        bool _buyerPaid,\r\n        bool sellerConfirmed,\r\n        bool buyerConfirmed\r\n    );\r\n\r\n    function createTrade(\r\n        // uint256 tradeIndex,\r\n        address payable seller,\r\n        address payable buyer,\r\n        uint256 sellerAmount,\r\n        uint256 buyerAmount,\r\n        uint256 expiredTime\r\n    ) public payable returns (string memory) {\r\n        Escrow escrow = new Escrow(\r\n            this,\r\n            seller,\r\n            buyer,\r\n            buyerAmount,\r\n            sellerAmount,\r\n            tradeIndex,\r\n            expiredTime\r\n        );\r\n        trades[tradeIndex]._escrow = escrow;\r\n        trades[tradeIndex]._state = tradeState.Created;\r\n        emit TradeStep(\r\n            tradeIndex,\r\n            uint256(trades[tradeIndex]._state),\r\n            address(trades[tradeIndex]._escrow),\r\n            trades[tradeIndex]._escrow.getBalance()\r\n        );\r\n        tradeIndex++;\r\n\r\n        return \"This is a test\";\r\n    }\r\n\r\n    function triggerPayment(uint256 _tradeIndex, address sender) public {\r\n        //payable\r\n        require(\r\n            trades[_tradeIndex]._state == tradeState.Created,\r\n            \"Escrow is further in the chain\"\r\n        );\r\n        if (trades[_tradeIndex]._escrow.buyer() == sender) {\r\n            trades[_tradeIndex]._buyerPaid = true;\r\n        }\r\n        if (trades[_tradeIndex]._escrow.seller() == sender) {\r\n            trades[_tradeIndex]._sellerPaid = true;\r\n        }\r\n        if (\r\n            trades[_tradeIndex]._buyerPaid == true &&\r\n            trades[_tradeIndex]._sellerPaid == true\r\n        ) {\r\n            trades[_tradeIndex]._state = tradeState.Paid;\r\n        }\r\n        emit TradeStep(\r\n            _tradeIndex,\r\n            uint256(trades[_tradeIndex]._state),\r\n            address(trades[_tradeIndex]._escrow),\r\n            trades[_tradeIndex]._escrow.getBalance()\r\n        );\r\n    }\r\n\r\n    //Get  escrow balance by ID\r\n    function getBalanceEscrow(uint256 _tradeIndex)\r\n        public\r\n        payable\r\n        returns (uint256 money)\r\n    {\r\n        emit TradeStep(\r\n            _tradeIndex,\r\n            uint256(trades[_tradeIndex]._state),\r\n            address(trades[_tradeIndex]._escrow),\r\n            trades[_tradeIndex]._escrow.getBalance()\r\n        );\r\n        return address(trades[_tradeIndex]._escrow).balance;\r\n    }\r\n\r\n    function getBalance() public view returns (uint256 money) {\r\n        return address(this).balance;\r\n    }\r\n\r\n    // trades[_tradeIndex]._escrow.index\r\n\r\n    function getTradeById(uint256 _tradeIndex)\r\n        public\r\n        payable\r\n        returns (EscrowStruct memory)\r\n    {\r\n        emit ViewTrade(\r\n            _tradeIndex,\r\n            uint256(trades[_tradeIndex]._state),\r\n            address(trades[_tradeIndex]._escrow),\r\n            trades[_tradeIndex]._escrow.getBalance(),\r\n            trades[_tradeIndex]._escrow.seller(),\r\n            trades[_tradeIndex]._escrow.buyer(),\r\n            trades[_tradeIndex]._sellerPaid,\r\n            trades[_tradeIndex]._buyerPaid,\r\n            trades[_tradeIndex].sellerConfirmed,\r\n            trades[_tradeIndex].buyerConfirmed\r\n        );\r\n        return trades[_tradeIndex];\r\n    }\r\n\r\n    //pivot 1 = seller paid, pivot 2 = buyer paid, pivot 3 = seller and puyer paid\r\n    function setAgreement(uint256 _index) public payable {\r\n        require(checkExpiry(_index), \"The contract has expired!\");\r\n        require(\r\n            trades[_index]._state == tradeState.Created ||\r\n                trades[_index]._state == tradeState.Paid,\r\n            \"Escrow is further in the chain\"\r\n        );\r\n\r\n        if (trades[_index]._escrow.getBalance() > 0) {\r\n            if (\r\n                trades[_index]._buyerPaid == true &&\r\n                trades[_index]._sellerPaid == true\r\n            ) {\r\n                // pivot 3 = bouth sides paids\r\n                require(\r\n                    trades[_index]._state == tradeState.Paid,\r\n                    \"Escrow is further in the chain\"\r\n                );\r\n\r\n                trades[_index]._state = tradeState.Confirmed;\r\n                trades[_index].buyerConfirmed = true;\r\n                trades[_index].sellerConfirmed = true;\r\n                trades[_index]._escrow.moneyRetur(3);\r\n            } else {\r\n                if (trades[_index]._sellerPaid) {\r\n                    // pivot 1 = only seller paid\r\n                    trades[_index]._state = tradeState.Canceld;\r\n                    trades[_index]._escrow.moneyRetur(1);\r\n                } else {\r\n                    // pivot 2 = only buyer paid\r\n                    trades[_index]._state = tradeState.Canceld;\r\n                    trades[_index]._escrow.moneyRetur(2);\r\n                }\r\n            }\r\n        }\r\n    }\r\n\r\n    function checkExpiry(uint256 _index) public view returns (bool success) {\r\n        // uint256 days_left = trades[_index]._escrow.expiredTime();\r\n\r\n        if (trades[_index]._escrow.expiredTime()>block.timestamp\r\n\r\n            // trades[_index]._escrow.deployTime() + (days_left) * (1 days) >\r\n            // block.timestamp\r\n        ) {\r\n            return true;\r\n        } else {\r\n            return false;\r\n        }\r\n    }\r\n}\r\n",
  "sourcePath": "c:\\Users\\me\\Desktop\\\\ \\ \\TrustMe30.5\\EscrowContract - Copy\\contracts\\EscrowManager.sol",
  "compiler": {
    "name": "solc",
    "version": "0.6.1+commit.e6f7d5a4.Emscripten.clang"
  },
  "schemaVersion": "3.4.7",
  "updatedAt": "2022-06-05T12:39:18.795Z",
  "networkType": "ethereum",
  "devdoc": {
    "methods": {}
  },
  "userdoc": {
    "methods": {}
  }
}